:100000000C9488000C94A5000C94A5000C94A500F9
:100010000C94A5000C94A5000C94A5000C94A500CC
:100020000C94A5000C94A5000C94A5000C94A500BC
:100030000C94A5000C940F010C9439010C94A500AC
:100040000C94A5000C94A5000C94A5000C94A5009C
:100050000C94A5002020000D0A20454550524F4D1C
:10006000207772697474656E2E204E6F77207265EA
:10007000616420636F6E74656E742066726F6D20AC
:10008000454550524F4D0A0D000D0A0A53616D70DF
:100090006C6520636F646520666F722065657072A1
:1000A0006F6D2077726974696E6720616E6420726B
:1000B000656164696E672E000D0A0A56697369747A
:1000C000205573206174207777772E726F626F6B83
:1000D0006974732E6F72672E20000D0A0A53616DCA
:1000E000706C6520636F6465206D61646520627962
:1000F00020526F626F6B69747320496E646961206E
:10010000666F7220524F424F475249442E200000E2
:1001100011241FBECFE5D8E0DEBFCDBF10E0A0E6C2
:10012000B0E0EEE2F4E002C005900D92A036B10717
:10013000D9F710E0A0E6B0E001C01D92A53AB107E2
:10014000E1F70E94A7000C9416020C940000CF92D5
:10015000DF92EF92FF921F93CF93DF93CDB7DEB77D
:1001600027970FB6F894DEBF0FBECDBF80EF8ABBD6
:100170008BEF87BB81EF81BBDC9AC29A919A929AEE
:10018000939A8CE090E00E945E0178948AED90E072
:100190000E94AF0188EB90E00E94AF0189E890E0F7
:1001A0000E94AF01A0E0B0E0CD0101960A2E0E94AE
:1001B000F6018F3F910511F0DC01F6CF87E590E065
:1001C0000E94AF01CC24DD24D6010E94EE01102D47
:1001D0004AE050E07E010894E11CF11CB701812F38
:1001E00099270E94BD01C7010E94A20184E590E009
:1001F0000E94AF010894C11CD11C1F3F29F780E069
:1002000090E027960FB6F894DEBF0FBECDBFDF910A
:10021000CF911F91FF90EF90DF90CF9008951F92A4
:100220000F920FB60F9211242F938F939F93EF93FA
:10023000FF939BB12CB1E091A200EF5FEF71809131
:10024000A300E81711F482E008C0892F8871E093B9
:10025000A200FF27E058FF4F20838093A400FF9166
:10026000EF919F918F912F910F900FBE0F901F9044
:1002700018951F920F920FB60F9211248F939F9390
:10028000EF93FF939091A0008091A100981761F0E7
:10029000E091A100EF5FEF71E093A100FF27E05A2A
:1002A000FF4F80818CB901C05598FF91EF919F91CC
:1002B0008F910F900FBE0F901F9018959C01109278
:1002C000A0001092A1001092A2001092A30097FF2C
:1002D00003C082E08BB93F77832F992780BD29B96E
:1002E00088E98AB986E880BD08959091A20080913E
:1002F000A300981719F480E091E00895E091A3001D
:10030000EF5FEF71E093A300FF27E058FF4F2081DC
:100310008091A4009927982F8827820F911D089516
:10032000282F9091A0009F5F9F718091A100981746
:10033000E1F3E92FFF27E05AFF4F20839093A000BD
:10034000559A0895CF93DF93EC0103C021960E9444
:10035000900188818823D1F7DF91CF910895CF93C1
:10036000DF93EC0102C00E949001FE01219684916E
:100370008823C9F7DF91CF910895FB019F01E8948D
:100380004230C4F04532B4F44A3029F497FB1EF4ED
:10039000909581959F4F642F77270E940202805D80
:1003A0008A330CF0895D8193CB010097A1F716F495
:1003B0005DE251931082C9010C94DE01DC01FC0165
:1003C000672F71917723E1F7329704C07C916D9389
:1003D00070836291AE17BF07C8F30895E199FECF0D
:1003E000BFBBAEBBE09A11960DB20895E199FECF66
:1003F000BFBBAEBB0DBA11960FB6F894E29AE19A64
:100400000FBE0895AA1BBB1B51E107C0AA1FBB1F4B
:10041000A617B70710F0A61BB70B881F991F5A9590
:0E042000A9F780959095BC01CD010895FFCFFE
:00000001FF
