:1000000012C02CC02BC02AC02AC028C027C026C0BE
:1000100025C024C023C022C021C020C01FC01EC0D4
:100020001DC01CC01BC011241FBECFE5D4E0DEBF25
:10003000CDBF10E0A0E6B0E0ECEDF1E002C005902D
:100040000D92A036B107D9F710E0A0E6B0E001C0EC
:100050001D92A636B107E1F7ACD0BEC0D1CF1F923A
:100060000F920FB60F9211248F939F93809160008F
:10007000909161000196909361008093600080915F
:1000800062009091630001969093630080936200F8
:100090008FEB84BD9F918F910F900FBE0F901F909B
:1000A00018951092610010926000109263001092F7
:1000B00062008091620090916300019690936300CA
:1000C00080936200829B04C01092610010926000D5
:1000D00080916000909161000196909361008093FF
:1000E00060008091600090916100C1974CF4809114
:1000F00062009091630081519740DCF282E00895A4
:1001000010926300109262008091620090916300EF
:1001100001969093630080936200829B02C080E00E
:10012000089580916200909163008151974064F33B
:1001300082E00895109261001092600010926300B6
:100140001092620060E070E040E050E0E1E0F0E03A
:1001500080916000909161004297D4F380B3440F86
:10016000551F282F30E036952795369527952E2751
:100170003F2721703070420F531F6F5F7F4F1092E7
:1001800061001092600080B390E0969587959695F7
:1001900087958E279F27817090702817390799F3CC
:1001A0006E307105A9F65093650040936400CA0152
:1001B00008958FEF84BB82E085BD8FEB84BD80E422
:1001C00089BF78946EDF882329F4B4DF8F73907031
:0C01D00085BBF8CF15BAF6CFF894FFCF2E
:00000001FF
