:1000000012C02CC02BC02AC02AC028C027C026C0BE
:1000100025C024C023C022C021C020C01FC01EC0D4
:100020001DC01CC01BC011241FBECFE5D4E0DEBF25
:10003000CDBF10E0A0E6B0E0E8EAF0E002C0059035
:100040000D92A036B107D9F710E0A0E6B0E001C0EC
:100050001D92A036B107E1F711D024C0D1CF1F9275
:100060000F920FB60F9211248F93919A8FEB84BD4C
:100070008F910F900FBE0F901F9018958FE081BB4E
:1000800082E085BD8FEB84BD80E489BF789424E253
:1000900034EF809902C0909A01C09098C9010197ED
:0800A000F1F7F7CFF894FFCF50
:00000001FF
