:0C0000000C9428001895000018950000D2
:10000C0018950000189500000C94590118950000E3
:10001C001895000018950000189500001895000020
:10002C001895000018950000189500001895000010
:10003C001895000018950000189500001895000000
:10004C00189500008FE181BD87E181BD8FE58DBFE3
:10005C00C0E4E8E34E2E88E08EBFD8E0F8E05F2ED7
:10006C00EEEFF7E0A0E6B0E088278D933197E9F743
:10007C00662480EF8ABB89EF87BB8FEF84BB8DEF43
:10008C0081BB81EA8FBD84E08EBD78948FEF90E0C8
:10009C0099BD88BD8FEF90E09BBD8ABD80E08093B9
:1000AC006100909A00916100003211F00C9469008B
:1000BC00AF98AA98AE9AAB9ADC9883E090E00E9435
:1000CC0075010C943F0100916100013211F00C9408
:1000DC007A00AE98AB98AF9AAA9ADC9883E090E03D
:1000EC000E9475010C943F0100916100013111F0E7
:1000FC000C948B00AE98AB9AAF9AAA98DC9883E0DC
:10010C0090E00E9475010C943F0100916100003158
:10011C0011F00C949C00AE9AAB98AF98AA9ADC980C
:10012C0083E090E00E9475010C943F010091610006
:10013C000E3011F00C94A700AC98AD9ADC980C948E
:10014C003F0100916100093211F00C94B200AD989E
:10015C00AC9ADC980C943F01009161000E3111F0C7
:10016C000C94BD00AF98AE9ADC980C943F010091B2
:10017C006100083311F00C94C800AE98AF9ADC986B
:10018C000C943F0100916100013011F00C94D900E6
:10019C0084E690E099BD88BD84E690E09BBD8ABD65
:1001AC00DC980C943F0100916100023011F00C942A
:1001BC00EA008FEA90E099BD88BD8FEA90E09BBD84
:1001CC008ABDDC980C943F0100916100033011F062
:1001DC000C94FB008FEF90E099BD88BD8FEF90E001
:1001EC009BBD8ABDDC980C943F01009161000930E5
:1001FC0011F00C94360190988FEF90E099BD88BD6A
:10020C008FEF90E09BBD8ABD0027BB27A0E38C91AC
:10021C0081FB0EF401E040E0041711F00C942D0169
:10022C00A998AF9AAB98AA9AE1E0F0E00E94660117
:10023C00AE98AB9AAF9AAA988FEF90E00E94750196
:10024C008FEF90E00E947501DD9A0C943201AE9A0A
:10025C00AF98AB9AAA98DD980C940A010C943F01C4
:10026C00AD98AF98AC98AE98AE98AF98AB98AA985A
:10027C00DC9A80E0809361000E948401A0E6B0E0EB
:10028C002C93A1E6B0E01C9300916000003011F0BB
:10029C000C945501A1E6B0E08C918F778C930C9463
:1002AC005800F894FFCF8F939F938FB73395539546
:1002BC0009F4439591EC94BD9F918FBF8F91189544
:1002CC0088EE93E00CD03197D9F708953197F1F778
:1002DC000895689462F80895E89462F80895EF938D
:1002EC00FF93EE27E82BE92B31F0EAEFF0E03197A2
:1002FC00F1F70197D1F7FF91EF9108950F933F9389
:10030C004F935F932F923F928F939F938FB78F93BF
:10031C0085B58F93816085BD89B78F93806489BFC4
:10032C0081EC84BD552744273327483008F047C05B
:10033C00373324F4C89BF8CFF8CF41C04830ECF7E2
:10034C00C899FCCF33273232D4F5C89BFCCF932FFE
:10035C00332711272227913110F0969511E0292E81
:10036C002694322C290E990F390E113021F03215AA
:10037C0034F5C899FCCF33270CE03215F0F3C8994B
:10038C0009C08894111F221F3315CCF4C89BFCCFD5
:10039C00332708C00894111F221F331584F4C89901
:1003AC00FCCF33270A9549F7912F991F221F991FCC
:1003BC00221F25FB17F926FB16F92F7102C01FEF20
:1003CC002FEF8F9189BF8F9185BD8F918FBF9F919B
:1003DC008F913F902F905F914F913F910F91089586
:00000001FF
