:1000000012C041C02BC02AC029C028C027C026C0AA
:1000100025C024C023C022C021C020C01FC01EC0D4
:100020001DC01CC01BC011241FBECFE5D4E0DEBF25
:10003000CDBF10E0A0E6B0E0E8E4F1E002C005903A
:100040000D92A036B107D9F710E0A0E6B0E001C0EC
:100050001D92A836B107E1F75BD074C0D1CF12BEB4
:10006000829BFECF8299FECF82B78A3138F081E041
:1000700090E0909363008093620008951092630073
:100080001092620008951F920F920FB60F921124E2
:100090008F939F9312BE8299FECF82B7873328F445
:1000A00080E197E20197F1F72CC012BE829BFECF50
:1000B0008299FECF82B78A3138F081E090E0909348
:1000C00063008093620004C010926300109262008B
:1000D0008091620090916300019791F412BE82B703
:1000E0008B32E8F312BE82B78B39E8F312BE15BA31
:1000F000829903C0C29AAD9A04C0C298AD9801C05B
:10010000C2989F918F910F900FBE0F901F901895DE
:1001100084E087BB11BA8FE384BB83E083BF19BE41
:1001200080E48BBF82E085BF7894109263001092C8
:1001300062001092650010926400109267001092A5
:080140006600F3CFF894FFCF35
:00000001FF
