:100000000C942A000C9447000C9447000C94470071
:100010000C9447000C9449000C9447000C94470042
:100020000C9447000C9447000C9447000C94470034
:100030000C9447000C9447000C9447000C94470024
:100040000C9447000C9447000C9447000C94470014
:100050000C94470011241FBECFE5D8E0DEBFCDBF12
:1000600010E0A0E6B0E0E2E9F3E002C005900D92F6
:10007000A036B107D9F710E0A0E6B0E001C01D92AC
:10008000AF36B107E1F70E943C010C94C7010C9414
:1000900000001F920F920FB60F9211242F933F93DF
:1000A0008F939F938091620090916300019690934B
:1000B00063008093620080916A008F5F80936A0082
:1000C0008FEB84BD80916A00882321F4AF9AAE9AA9
:1000D000AD9AAC9A90916A0080916800981751F49B
:1000E00080916400813009F4AF988091650081307F
:1000F00009F4AE9890916A0080916900981751F4C4
:1001000080916600813009F4AD988091670081305C
:1001100009F4AC9880916100882309F4A4C020916F
:100120006100213009F042C080916000882361F4B1
:1001300010926300109262002093600089B3809552
:10014000817080936D008FC0809160008130A9F430
:1001500089B390916D0080958170981759F48091C2
:10016000620090916300C2970CF47DC082E080939E
:10017000600079C01092600076C03091600032302B
:10018000A9F489B390916D0080958170981709F456
:100190006AC0209360001092630010926200109277
:1001A0006C0010926B00309361005DC08091610023
:1001B000823009F058C080916000882379F599B3A6
:1001C0009095917080916D00891751F090936D001A
:1001D00081E080936000109263001092620043C03F
:1001E0008091620090916300C297ECF181E080936E
:1001F00060001092610080916B0090916C00959569
:10020000879580936E0080916E00809580936E003C
:1002100080916E008F7380936E0025C08091600086
:10022000813009F580916200909163004197DCF084
:100230001092600089B38095817080936D00209149
:100240006B0030916C00220F331F30936C002093B1
:100250006B0020916B0030916C00280F311D3093A2
:100260006C0020936B009F918F913F912F910F9085
:100270000FBE0F901F9018951ABA8FEF84BB82E0C3
:1002800085BD8FEB84BD80E489BF789410926000B7
:1002900081E0809361008FEF85BB21E06AE554EB3C
:1002A0004AEF35E07FEF809161008823B1F48091BF
:1002B0006000813019F4809361000DC0809162006C
:1002C000909163008958934144F01092630010921A
:1002D0006200209361001092600080916E00803176
:1002E00011F1813178F4823009F440C0833020F478
:1002F000813009F049C035C08330E9F1843009F01C
:1003000043C03EC08032A1F0813218F48131E1F562
:1003100005C08132B1F08B33B9F51CC02093640065
:100320001092650012C0109264002093650004C012
:10033000209364001092650020936600109267007D
:1003400023C01092640020936500109266002093F1
:1003500067001AC010926400109265001092660047
:10036000EDCF30936800309369000EC06093680051
:100370006093690009C0509368005093690004C0FD
:10038000409368004093690070936E008CCFF8949E
:02039000FFCF9D
:00000001FF
