:100000000C942A000C9447000C9447000C94470071
:100010000C9447000C9447000C9447000C94470044
:100020000C9447000C9447000C9447000C94470034
:100030000C9447000C9447000C9447000C94470024
:100040000C9447000C9447000C9447000C94470014
:100050000C94470011241FBECFE5D8E0DEBFCDBF12
:1000600010E0A0E6B0E0E8EEF0E002C005900D92EE
:10007000A036B107D9F710E0A0E6B0E001C01D92AC
:10008000A036B107E1F70E9449000C9472000C946D
:10009000000080EF8ABB8BEF87BB91EF91BB8FEFA6
:1000A00084BBDC9AC29A919A929A939AA89AAB9A34
:1000B00081B3806681BB9FBD8AE08EBD20E04AE6A9
:1000C00058E106C02ABD28BDCA010197F1F72F5F8C
:1000D0002F3FC1F72ABD28BDCA010197F1F7215072
:0800E000C9F7F6CFF894FFCF39
:00000001FF
