:1000000090C0AAC0A9C0A8C0A7C0A6C0A5C0A4C0CF
:10001000A3C0A2C0A1C0F9C022C19EC09DC09CC007
:100020009BC09AC099C0427566666572206F7665FE
:1000300072666C6F77206572726F723A200055415C
:100040005254204F76657272756E204572726F72CF
:100050003A200055415254204672616D6520457228
:10006000726F723A20000A0A507265737320616ED3
:1000700079206B6579206F6E206B6579626F617294
:10008000643A20000D0A0A57726974696E67206E1F
:10009000756D62657220746F20554152543A20008C
:1000A0000D0A0A56697369742055732061742077AC
:1000B00077772E726F626F6B6974732E6F72672E13
:1000C00020000D0A0A436865617065737420526FE1
:1000D000626F74696373204B69747320696E204981
:1000E0006E6469612E20000D0A0A53616D706C65A3
:1000F00020636F6465206D61646520627920526FB2
:10010000626F6B69747320496E64696120666F72F7
:100110002070726F647563742069642031392E20F9
:10012000000011241FBECFE5D4E0DEBFCDBF10E03C
:10013000A0E6B0E0EAEEF3E002C005900D92A03632
:10014000B107D9F710E0A0E6B0E001C01D92A53AD2
:10015000B107E1F702D048C153CFAF92BF92CF921F
:10016000DF92EF92FF920F931F93CF93DF93CDB760
:10017000DEB727970FB6F894DEBF0FBECDBF81E084
:1001800087BB80EC81BBC09A929A939A8CE090E0F6
:100190008BD0789487EE90E0D7D082EC90E0D4D0EA
:1001A00080EA90E0D1D084E890E0CED04AE050E000
:1001B0008E010F5F1F4FB80186E890E0D2D0C801D2
:1001C000B7D08DE0A3D086E690E0BED026E2A22E86
:1001D00020E0B22E9EE3C92E90E0D92E83E5E82ED2
:1001E00080E0F82E78D08C0190FDFCCF93FF02C008
:1001F000C701AAD012FF02C0C601A6D011FF02C0DB
:10020000C501A2D0802F82D0EDCF1F920F920FB6E2
:100210000F9211242F938F939F93EF93FF939BB192
:100220002CB1E091A200EF5FEF718091A300E8177D
:1002300011F482E008C0892F8871E093A200F0E0F9
:10024000E058FF4F20838093A400FF91EF919F918E
:100250008F912F910F900FBE0F901F9018951F92A6
:100260000F920FB60F9211248F939F93EF93FF93EA
:100270009091A0008091A100981761F0E091A100F9
:10028000EF5FEF71E093A100F0E0E05AFF4F808153
:100290008CB901C05598FF91EF919F918F910F906C
:1002A0000FBE0F901F9018959C011092A000109205
:1002B000A1001092A2001092A30097FF03C082E059
:1002C0008BB93F77832F992780BD29B988E98AB9EF
:1002D00086E880BD08959091A2008091A3009817B0
:1002E00019F480E091E00895E091A300EF5FEF71D1
:1002F000E093A300F0E0E058FF4F20818091A4003C
:1003000090E0982F8827820F911D0895282F9091B3
:10031000A0009F5F9F718091A1009817E1F3E92FE2
:10032000F0E0E05AFF4F20839093A000559A089583
:10033000CF93DF93EC0102C02196E8DF8881882308
:10034000D9F7DF91CF910895CF93DF93EC0101C0EE
:10035000DDDFFE01219684918823D1F7DF91CF91D3
:100360000895FB019F01E8944230BCF04532ACF4A3
:100370004A3029F497FB1EF4909581959F4F642F86
:1003800077271ED0805D8A330CF0895D8193CB0185
:100390000097A9F716F45DE251931082C90100C0DD
:1003A000DC01FC01672F71917723E1F7329704C0DC
:1003B0007C916D9370836291AE17BF07C8F3089567
:1003C000AA1BBB1B51E107C0AA1FBB1FA617B7077B
:1003D00010F0A61BB70B881F991F5A95A9F7809597
:0A03E0009095BC01CD010895FFCFF8
:00000001FF
