:1000000012C041C02BC02AC029C028C027C026C0AA
:1000100025C024C023C022C021C020C01FC01EC0D4
:100020001DC01CC01BC011241FBECFE5D4E0DEBF25
:10003000CDBF10E0A0E6B0E0EAEAF1E002C0059032
:100040000D92A036B107D9F710E0A0E6B0E001C0EC
:100050001D92A836B107E1F78AD0A5C0D1CF12BE54
:10006000829BFECF8299FECF82B78A3138F081E041
:1000700090E0909363008093620008951092630073
:100080001092620008951F920F920FB60F921124E2
:100090008F939F9312BE8299FECF82B7873318F455
:1000A00080E197E259C012BE829BFECF8299FECFBB
:1000B00082B78A3138F081E090E0909363008093BA
:1000C000620004C01092630010926200809162008E
:1000D00090916300019709F042C012BE82B78B3243
:1000E000E8F312BE82B78B39E8F312BE15BA8299D3
:1000F00002C0AD9A01C0AD9812BE82B78E31E8F34E
:10010000829902C0AC9A01C0AC9812BE82B78E31FF
:10011000E8F3829902C0AB9A01C0AB9812BE82B7D5
:100120008E31E8F3829902C0AA9A01C0AA9812BE41
:1001300082B78E31E8F3829902C0A99A01C0A998CA
:1001400012BE82B78E31E8F3829903C0959AC29AA3
:1001500001C0A89884E294EF0197F1F701C0C2981A
:100160009F918F910F900FBE0F901F90189584E074
:1001700087BB80E281BB8FE384BB83E083BF19BE72
:1001800080E48BBF82E085BF789410926300109268
:100190006200109265001092640010926700109245
:0A01A0006600C298F2CFF894FFCF7A
:00000001FF
