:1000000012C02CC02BC02AC029C028C027C026C0BF
:1000100026C024C023C022C021C020C01FC01EC0D3
:100020001DC01CC01BC011241FBECFE5D4E0DEBF25
:10003000CDBF10E0A0E6B0E0ECECF0E002C005902F
:100040000D92A036B107D9F710E0A0E6B0E001C0EC
:100050001D92A036B107E1F717D036C0D1CF1F925D
:100060000F920FB60F9211248F939F93969A84E26A
:1000700094EF0197F1F782E882BF9F918F910F90E3
:100080000FBE0F901F90189591E097BB80EC81BB3D
:1000900082E083BF82E882BF99BF789424E234EF84
:1000A000C9010197F1F7C9010197F1F7C90101975A
:1000B000F1F79698C9010197F1F7C9010197F1F796
:0C00C000C9010197F1F7ECCFF894FFCFD5
:00000001FF
