:100000000C942A000C9447000C9447000C94470071
:100010000C9447000C9447000C9447000C94470044
:100020000C9447000C9447000C9447000C94490032
:100030000C9447000C9447000C9447000C94470024
:100040000C9447000C9447000C9447000C94470014
:100050000C94470011241FBECFE5D8E0DEBFCDBF12
:1000600010E0A0E6B0E0E4E1F1E002C005900D92FE
:10007000A036B107D9F710E0A0E6B0E001C01D92AC
:10008000A036B107E1F70E9458000C9488000C9448
:1000900000001F920F920FB60F9211248F93C29AF5
:1000A00083E182BF8F910F900FBE0F901F90189524
:1000B00014BA87EC87BB81EF81BB81E089BF82E006
:1000C00083BF83E182BF78941BC080E090E0C19A37
:1000D0009098019647E280319407C9F72F5F3F4F10
:1000E0002436310594F30FC0C198909A019647E2E7
:1000F00080319407C9F72F5F3F4F2436310529F42B
:1001000020E030E0EDCF20E030E080E090E0ECCF88
:04011000F894FFCF91
:00000001FF
