:1000000012C0E9C052C12AC029C028C027C026C0DA
:1000100089C025C023C022C021C020C01FC01EC06F
:100020001DC01CC01BC011241FBECFE5D4E0DEBF25
:10003000CDBF10E0A0E6B0E0E0EFF4E002C0059034
:100040000D92A436B107D9F710E0A4E6B0E001C0E4
:100050001D92A237B107E1F7DED148C2D1CF1F927E
:100060000F920FB60F9211248F939F9380916A0085
:1000700090916B00892BA1F080916A0090916B00A8
:10008000019711F484E508C080916A0090916B009B
:10009000029709F040C08DE982BF86993BC037C006
:1000A00080916C0090916D00892BB1F080916C0073
:1000B00090916D00019711F484E507C080916C0068
:1000C00090916D00029739F58DE982BF879902C042
:1000D000979A21C097981FC080916E0090916F00F1
:1000E000892BC9F080916E0090916F00019711F4F7
:1000F00084E507C080916E0090916F00029759F4DB
:100100008DE982BF879905C0869903C0979A969A10
:1001100002C0979896989F918F910F900FBE0F9065
:100120001F9018951F920F920FB60F9211242F93C4
:100130003F934F935F936F938F939F938DE894EDCD
:100140009DBD8CBD109267001092660024E234EFD2
:1001500041E050E02DC083990FC0969A979AC9014B
:100160000197F1F796989798C9010197F1F7509385
:1001700065004093640012C0969A979AC90101974E
:10018000F1F796989798C9010197F1F710926500D9
:1001900010926400109263001092620080916600D9
:1001A0009091670086509E4F909367008093660001
:1001B000809166009091670083579B4064F29F9105
:1001C0008F916F915F914F913F912F910F900FBE43
:1001D0000F901F9018951F920F920FB60F92112437
:1001E0008F939F93EF93FF938091680090916900A4
:1001F00001969093690080936800809168009091C7
:100200006900049721F4109269001092680084E25A
:1002100094EFFC013197F1F70197F1F7FF91EF911E
:100220009F918F910F900FBE0F901F9018959C017A
:1002300081E089BF85E083BF8CEF82BF8091600041
:10024000909161000B9779F406C0979AF901319764
:10025000F1F7979804C0C901019724E234EF823086
:10026000910598F320C080916000909161000C97F7
:1002700079F406C0969AF9013197F1F7969804C07F
:10028000C901019724E234EF8230910598F30BC045
:1002900080916000909161000D9729F4C901019748
:1002A00082309105E8F319BE08951F920F920FB6A0
:1002B0000F9211242F933F934F935F936F937F93EC
:1002C0008F939F93AF93BF93EF93FF9384E089BF86
:1002D0001FBC85E08EBD8FEF9FEF9DBD8CBD8091D3
:1002E0006000909161000B9769F08091600090919F
:1002F00061000C9739F080916000909161000D973A
:1003000009F078C080916000909161000B9711F521
:1003100080916A0090916B00019690936B0080939E
:100320006A0010926D0010926C0010926F00109293
:100330006E0080916A0090916B00039731F481E028
:1003400090E090936B0080936A0080916A00909196
:100350006B004FC080916000909161000C9711F587
:1003600010926B0010926A0080916C0090916D0069
:10037000019690936D0080936C0010926F00109224
:100380006E0080916C0090916D00039731F481E0D4
:1003900090E090936D0080936C0080916C00909140
:1003A0006D0027C080916000909161000D9711F55C
:1003B00010926B0010926A0010926D0010926C0007
:1003C00080916E0090916F00019690936F008093E2
:1003D0006E0080916E0090916F00039731F481E080
:1003E00090E090936F0080936E0080916E009091EA
:1003F0006F001DDFFF91EF91BF91AF919F918F91A2
:100400007F916F915F914F913F912F910F900FBE10
:100410000F901F901895EF92FF920F931F9381E01A
:1004200087BB80EC81BBC09A929A939A80E88BBF7D
:1004300088E085BF789424E234EF90E4E92E82E0EE
:10044000F82EAAE0B0E0EDE0F0E06CE070E04BE008
:1004500050E000E818E0969A979AC9010197F1F7E1
:1004600096989798C9010197F1F78091640090914F
:1004700065000197B9F58091620090916300892B26
:1004800089F12CC0EBBEF5BE8091680090916900A7
:10049000019731F45093610040936000969A1FC019
:1004A0008091680090916900029739F4709361001F
:1004B00060936000979A969813C08091680090911D
:1004C0006900039739F4F0936100E0936000969A15
:1004D000979A06C0B0936100A09360009698979891
:1004E000839BD0CF19BE0BBF15BFB5CFF894FFCFFC
:0404F00021000100E6
:00000001FF
