:100000000C942A000C9447000C9447000C94470071
:100010000C9447000C9447000C9447000C94470044
:100020000C9447000C9447000C9447000C94470034
:100030000C9447000C9447000C9447000C94470024
:100040000C9447000C9447000C9447000C94470014
:100050000C94470011241FBECFE5D8E0DEBFCDBF12
:1000600010E0A0E6B0E0E0EAF1E002C005900D92F9
:10007000A036B107D9F710E0A0E6B0E001C01D92AC
:10008000A036B107E1F70E94AC000C94CF000C94AD
:1000900000008430910509F43CC08530910584F45A
:1000A0008130910521F1823091051CF4892BD9F022
:1000B00008958230910509F1039709F04CC023C0DF
:1000C00087309105C1F1883091053CF48530910568
:1000D00031F1069709F03FC028C08830910589F1B9
:1000E0000997C9F532C0DE988BB38F632CC08BB3F0
:1000F00086788BBB8BB3866026C08BB38B7D8BBB26
:100100008BB38B6520C08BB38F7C8BBB8BB38F6421
:100110001AC08BB3867E8BBB8BB3866614C08BB341
:100120008D7E8BBB8BB38D660EC08BB38C7F8BBBF0
:100130008BB38D6708C08BB387788BBB8BB387601D
:1001400002C08BB38F678BBB08958BB3877E8BBB4D
:100150008BB387668BBB0895CF93DF938FEF8ABBFA
:1001600080E090E00E94490081E090E0EC0186E0B0
:1001700099EFFC013197F1F7FC013197F1F7FC01A0
:100180003197F1F70197F1F7CE010E944900CE01B6
:100190000196C0E0D0E08A30910548F7E7CFFFCF65
:00000001FF
