:1000000012C042C02BC02AC029C028C027C026C0A9
:1000100025C024C023C022C021C020C01FC01EC0D4
:100020001DC01CC01BC011241FBECFE5D4E0DEBF25
:10003000CDBF10E0A0E6B0E0E2E3F1E002C0059041
:100040000D92A036B107D9F710E0A0E6B0E001C0EC
:100050001D92A836B107E1F750D069C0D1CF12BECA
:10006000829BFECF8299FECF82B78A3140F081E039
:1000700090E09093630080936200C29A089510927A
:1000800063001092620008951F920F920FB60F92B4
:1000900011242F933F934F935F936F937F938F938D
:1000A0009F93AF93BF93EF93FF9312BE8299FECFBE
:1000B00082B7853428F480E197E20197F1F70CC00C
:1000C000CEDF8091620090916300019721F412BE0F
:1000D00082B78B32E8F3C298FF91EF91BF91AF9155
:1000E0009F918F917F916F915F914F913F912F9150
:1000F0000F900FBE0F901F90189584E087BB11BA28
:100100008FE384BB83E083BF19BE80E48BBF82E0B2
:1001100085BF78941092630010926200109265007F
:10012000109264001092670010926600F3CFF8946A
:02013000FFCFFF
:00000001FF
