:1000000012C02CC02BC02AC029C028C027C026C0BF
:1000100025C024C023C022C021C020C01FC01EC0D4
:100020001DC01CC01BC011241FBECFE5D4E0DEBF25
:10003000CDBF10E0A0E6B0E0ECEAF0E002C0059031
:100040000D92A036B107D9F710E0A0E6B0E001C0EC
:100050001D92A036B107E1F702D026C0D1CF84E0CF
:1000600087BB81E081BB24E234EF54E041E018BA61
:1000700012BAC9010197F1F7C9010197F1F7C90156
:100080000197F1F7C9010197F1F758BB42BBC901CC
:100090000197F1F7C9010197F1F7C9010197F1F74C
:0C00A000C9010197F1F7E3CFF894FFCFFE
:00000001FF
