:1000000012C02CC02BC02AC029C028C027C026C0BF
:1000100025C024C023C022C021C020C01FC01EC0D4
:100020001DC01CC01BC011241FBECFE5D4E0DEBF25
:10003000CDBF10E0A0E6B0E0E4EAF0E002C0059039
:100040000D92A036B107D9F710E0A0E6B0E001C0EC
:100050001D92A036B107E1F702D022C0D1CF81E0D6
:1000600087BB80EC81BBC09ABA9A81EC8FBD8AE0D5
:100070008EBD20E044EC59E006C028BD969ACA0126
:100080000197F1F72F5F2436C0F396982FEF2ABD22
:10009000979ACA010197F1F72150C9F79798EDCFC8
:0400A000F894FFCF02
:00000001FF
