:1000000012C02CC02BC02AC029C028C027C026C0BF
:1000100026C024C023C022C021C020C01FC01EC0D3
:100020001DC01CC01BC011241FBECFE5D4E0DEBF25
:10003000CDBF10E0A0E6B0E0ECEAF0E002C0059031
:100040000D92A036B107D9F710E0A0E6B0E001C0EC
:100050001D92A036B107E1F719D026C0D1CF1F926B
:100060000F920FB60F9211248F939F93B59902C0F0
:10007000C59A01C0C5988DEE95E89DBD8CBD9F9138
:100080008F910F900FBE0F901F90189580E287BB45
:1000900011BA1FBC82E08EBD8CEF9FEF9DBD8CBD61
:0C00A00084E089BF7894FFCFF894FFCF74
:00000001FF
