:1000000012C0F3C061C12AC029C028C027C026C0C1
:1000100090C025C023C022C021C020C01FC01EC068
:100020001DC01CC01BC011241FBECFE5D4E0DEBF25
:10003000CDBF10E0A0E6B0E0EEE4F5E002C0059030
:100040000D92A436B107D9F710E0A4E6B0E001C0E4
:100050001D92A637B107E1F7F5D177C2D1CF1F9234
:100060000F920FB60F9211248F939F93C09A81E045
:1000700090E0909375008093740080916C00909153
:100080006D00892BA1F080916C0090916D0001971B
:1000900011F484E508C080916C0090916D00029786
:1000A00009F040C08DE982BF86993BC037C080917E
:1000B0006E0090916F00892BB1F080916E0090914D
:1000C0006F00019711F484E507C080916E00909154
:1000D0006F00029739F58DE982BF879902C0979A20
:1000E00021C097981FC08091700090917100892B5A
:1000F000C9F08091700090917100019711F484E52E
:1001000007C08091700090917100029759F48DE9B9
:1001100082BF879905C0869903C0979A969A02C0B4
:10012000979896989F918F910F900FBE0F901F9068
:1001300018951F920F920FB60F9211242F933F9391
:100140004F935F936F938F939F938DE894ED9DBD35
:100150008CBD109267001092660024E234EF41E0FB
:1001600050E02DC083990FC0969A979AC9010197C4
:10017000F1F796989798C9010197F1F750936500A8
:100180004093640012C0969A979AC9010197F1F7BB
:1001900096989798C9010197F1F71092650010920F
:1001A000640010926300109262008091660090914A
:1001B000670088509E4F90936700809366008091FF
:1001C00066009091670083579B4064F289B78B7FEC
:1001D00089BF9F918F916F915F914F913F912F9127
:1001E0000F900FBE0F901F9018951F920F920FB691
:1001F0000F9211248F939F93EF93FF9380916A0046
:1002000090916B00019690936B0080936A008091AF
:100210006A0090916B00049721F410926B00109289
:100220006A0084E294EFFC013197F1F70197F1F74E
:10023000FF91EF919F918F910F900FBE0F901F90A4
:1002400018959C01C09819BE81E089BF85E083BFE5
:1002500080EF82BF84ED90E30197F1F78091600019
:10026000909161000B9779F406C0979AF901319744
:10027000F1F7979804C0C901019724ED30E382306B
:10028000910598F3089580916000909161000C971A
:1002900079F406C0969AF9013197F1F7969804C05F
:1002A000C901019724ED30E38230910598F3089558
:1002B00080916000909161000D9729F4C901019728
:1002C00082309105E8F308951F920F920FB60F92B6
:1002D00011242F933F934F935F936F937F938F934B
:1002E0009F93AF93BF93EF93FF93C09A83990EC0F0
:1002F00084E089BF1FBC85E08EBD8EEF9FEF9DBD62
:100300008CBD84ED90E30197F1F78BC08091600084
:10031000909161000B9769F080916000909161006D
:100320000C9739F080916000909161000D9709F071
:1003300078C080916000909161000B9711F58091D9
:100340006C0090916D00019690936D0080936C000D
:1003500010926F0010926E00109271001092700057
:1003600080916C0090916D00039731F481E090E0F2
:1003700090936D0080936C0080916C0090916D0063
:100380004FC080916000909161000C9711F5109220
:100390006D0010926C0080916E0090916F0001963C
:1003A00090936F0080936E00109271001092700015
:1003B00080916E0090916F00039731F481E090E09E
:1003C00090936F0080936E0080916E0090916F000B
:1003D00027C080916000909161000D9711F51092F7
:1003E0006D0010926C0010926F0010926E00809160
:1003F000700090917100019690937100809370004D
:100400008091700090917100039731F481E090E049
:1004100090937100809370008091700090917100B2
:1004200010DFFF91EF91BF91AF919F918F917F91DD
:100430006F915F914F913F912F910F900FBE0F9051
:100440001F901895CF92DF92EF92FF920F931F9318
:10045000CF93DF9381E087BB80EC81BBC09A929AF7
:10046000939A80E88BBF88E085BF789424E234EFCC
:1004700050E4C52E42E0D42E0AE010E0CDE0D0E0FA
:10048000ACE0B0E0EBE0F0E06CE772E941E050E0B6
:1004900090E8E92E88E0F82E969A979AC90101977C
:1004A000F1F796989798C9010197F1F78091640048
:1004B00090916500019709F041C080916200909190
:1004C0006300892B09F43AC09698979832C0CBBE46
:1004D000D5BE80916A0090916B00019731F4F09342
:1004E0006100E0936000969A1FC080916A0090912D
:1004F0006B00029739F4B0936100A0936000979A63
:10050000969813C080916A0090916B00039739F41C
:10051000D0936100C0936000969A979A06C010939A
:100520006100009360009698979810926500109271
:100530006400839BCCCFCB010197F1F7509363000C
:0E05400040936200EBBEF5BEA7CFF894FFCF4C
:04054E002100010087
:00000001FF
