:100000000C942A000C9447000C9447000C94470071
:100010000C9447000C9447000C9447000C94470044
:100020000C9447000C9447000C9447000C94470034
:100030000C9447000C9447000C9447000C94470024
:100040000C9447000C9447000C9447000C94470014
:100050000C94470011241FBECFE5D8E0DEBFCDBF12
:1000600010E0A0E6B0E0E4E8F1E002C005900D92F7
:10007000A036B107D9F710E0A0E6B0E001C01D92AC
:10008000A036B107E1F70E9449000C94C1000C941E
:10009000000080EF8ABB8BEF87BB81EF81BBDC9ACE
:1000A000C29A919A929A939AB29919C050E1E2EE4B
:1000B000F4E040E230E420E855BBCF010197F1F7CE
:1000C00045BBCF010197F1F735BBCF010197F1F7A0
:1000D00025BBCF010197F1F7B29BEECF50C08199BC
:1000E00019C050E8E2EEF4E040E430E220E155BB14
:1000F000CF010197F1F745BBCF010197F1F735BB70
:10010000CF010197F1F725BBCF010197F1F7819B53
:10011000EECF35C0829919C051E0E2EEF4E042E042
:1001200034E028E055BBCF010197F1F745BBCF0183
:100130000197F1F735BBCF010197F1F725BBCF014F
:100140000197F1F7829BEECF1AC0839918C058E04F
:10015000E2EEF4E044E032E021E055BBCF0101974C
:10016000F1F745BBCF010197F1F735BBCF010197FF
:10017000F1F725BBCF010197F1F7839BEECF15BABD
:0401800093CFFFCF4B
:00000001FF
