:1000000012C02CC02BC02AC029C028C027C026C0BF
:1000100025C025C023C022C021C020C01FC01EC0D3
:100020001DC01CC01BC011241FBECFE5D4E0DEBF25
:10003000CDBF10E0A0E6B0E0EEECF2E002C005902B
:100040000D92A036B107D9F710E0A0E6B0E001C0EC
:100050001D92A336B107E1F71DD137C1D1CF1F9251
:100060000F920FB60F9211248F939F93809160008F
:100070008F5F809360008832C1F48091610090911D
:10008000620001969093620080936100B29902C071
:10009000C29A01C0C298059731F481E090E0909334
:1000A000620080936100109260008BE082BF9F919C
:1000B0008F910F900FBE0F901F901895823329F4E7
:1000C000A0E0B0E0E1E0F0E004C0A7E0B0E0E6E0EE
:1000D000F0E0663461F0673420F4623409F059C00E
:1000E00018C0633559F1633709F053C03DC048B3B8
:1000F00081E090E09C0102C0220F331FAA95E2F735
:10010000422B48BB28B302C0880F991FEA95E2F73B
:1001100011C048B381E090E09C0102C0220F331F60
:10012000EA95E2F7422B48BB28B302C0880F991F1B
:10013000AA95E2F78095822388BB089548B321E011
:1001400030E0C90102C0880F991FEA95E2F7809557
:10015000842388BB88B302C0220F331FAA95E2F71D
:100160002095282328BB089548B321E030E0C90139
:1001700002C0880F991FAA95E2F78095842388BB57
:1001800088B302C0220F331FEA95E2F72095282397
:1001900028BB08958C34A9F08D3428F4823451F0B2
:1001A0008634E1F405C0823539F08335B9F410C0E6
:1001B00066E403C062E406C062E481E37FDF66E4D4
:1001C00004C066E481E37ADF62E482E377DF0895C6
:1001D00063E781E373DF63E782E370DF08951F93D2
:1001E00090936200809361008230910569F08330C2
:1001F000910594F08330910529F0049709F048C0E7
:1002000010E036C010E021C010E00CC086E4C2DF70
:1002100080916100909162000197C1F339C086E43A
:10022000B9DF1F5F183C20F4FACF83E5B3DF1F5F0F
:100230001F3FD9F78091610090916200029741F5CC
:1002400010E0EDCF86E4A6DF1F5F113920F4FACF6E
:1002500083E5A0DF1F5F1F3FD9F780916100909178
:1002600062000397A9F410E0EDCF86E493DF1F5FEF
:10027000193620F4FACF83E58DDF1F5F1F3FD9F7D2
:100280008091610090916200049711F410E0EDCF2D
:100290001F91089581E090E0909362008093610047
:1002A0008FE081BB88E184BB87EC87BBAB98AC98BF
:1002B00085E083BF8BE082BF81E089BF7894809125
:0E02C0006100909162008BDFFACFF894FFCFBF
:00000001FF
